:1000000065C000000C9448130C94751387C0000061
:1000100085C0000083C0000081C000000C94A317BD
:100020007DC000007BC0000079C0000077C00000E8
:1000300075C000000C94021871C000006FC0000071
:100040000C94A2136BC000000C94E2150C941416CF
:1000500065C0000063C0000061C000005FC0000018
:100060005DC000005BC0000000000008000201004D
:100070000003040700000000000000000102040863
:100080001020408001020408102001020408102002
:10009000040404040404040402020202020203032E
:1000A00003030303000000002300260029000000D2
:1000B0000000250028002B0000000000240027007D
:1000C0002A0002001812CD123916B31611241FBED1
:1000D000CFEFD8E0DEBFCDBF11E0A0E0B1E0EEE5AC
:1000E000F4E302C005900D92AE3AB107D9F723E0D0
:1000F000AEEAB1E001C01D92AF34B207E1F710E003
:10010000CCECD0E004C02297FE010E94131AC43C3C
:10011000D107C9F70E9467180C942D1A71CFFB0103
:100120002481207824831182108213821282158206
:10013000FC0110820895CF93DF93DC01EA01F901FD
:10014000448146FD04C04C7B4264448313C0842F29
:100150008370813009F03FC0208131812233310525
:1001600028F4828193818233910538F08481807FE5
:10017000826084831882158255C0542F5C7054307D
:1001800089F4A83E83E0B80700F1A83EB34009F423
:1001900061C0C901A0E0B0E00196A11DB11D91832D
:1001A000808304C0A93E23E0B20720F0437F44606F
:1001B000448322C0A83EB34009F44CC0A0E0B0E0A4
:1001C0000196A11DB11D93838283437F48604483C0
:1001D000118210823FC06A177B0789F085818330C6
:1001E00070F04C7C416044831182108281E08883EE
:1001F0008481837F84608483138212822BC0407346
:100200004031A1F4683E734028F5A93EB34010F197
:10021000858190E00196811521E0920711F48FEF1E
:1002200090E0858384818F7C806213C0693E734037
:1002300088F0A83EB34070F4858190E00196811566
:1002400021E0920711F48FEF90E0858384818F7C09
:1002500080618483DF91CF9108952F923F924F92D6
:100260005F926F927F928F929F92AF92BF92CF9246
:10027000DF92EF92FF920F931F93CF93DF93CDB74F
:10028000DEB72A970FB6F894DEBF0FBECDBF84E26B
:1002900093E00E940E1265E373E084E393E00E9412
:1002A000841200910603709014031091340310938C
:1002B00014038091050380FD04C0816080930503D1
:1002C00021C0809102038295837090E08130910576
:1002D00021F0029709F450C0CBC080900A019090A1
:1002E0000B01A0900C01B0900D016091070370E02C
:1002F00080E090E00E943B19A50194010E94091939
:1003000081110AC0809102038063809302031092DE
:10031000370310923603F1C0711609F4EEC01123B1
:1003200009F4EBC0602F70E080E090E00E943B1980
:100330006B017C0120911601309117014091180149
:10034000509119010E940919882341F0A5019401D7
:10035000C701B6010E9409198111AEC08091020344
:100360008F7C80628093020381E080933703109238
:10037000360310920D03C1C0B0900D0325E0B212F8
:1003800024C0602F70E080E090E00E943B196B0178
:100390007C01209116013091170140911801509174
:1003A00019010E940919882309F4ACCF20910A0190
:1003B00030910B0140910C0150910D01C701B60124
:1003C0000E940919882309F49DCF711609F492C07F
:1003D000112309F48FC0602F70E080E090E00E944C
:1003E0003B196B017C01209116013091170140915E
:1003F0001801509119010E940919882309F4AECF00
:1004000020910A0130910B0140910C0150910D0196
:10041000C701B6010E940919882309F49FCF2091D2
:100420002201309123014091240150912501C701FF
:10043000B6010E94091981110CC0809102038F7CC2
:100440008061809302031092370381E0809336032A
:1004500054C020911E0130911F0140912001509104
:100460002101C701B6010E940919882331F342C056
:10047000711609F442C0112309F43FC0602F70E0E7
:1004800080E090E00E943B196B017C0120911601F5
:100490003091170140911801509119010E940919DA
:1004A000882309F45BCF20910A0130910B01409120
:1004B0000C0150910D014CCF20912201309123016C
:1004C0004091240150912501C701B6010E940919EC
:1004D000882309F4B2CF20911E0130911F01409171
:1004E000200150912101C701B6010E940919811113
:1004F00004C0A3CFB394B0920D0380915A010E941F
:1005000033147C0180915E010E9433148C0120E041
:1005100030E040E85FE36091E7027091E80280918B
:10052000E9029091EA020E94A5186093E702709395
:10053000E8028093E9029093EA0220E030E040E292
:1005400051E40E940919811132C06091F302709147
:10055000F4022EE133E04CE453E0C701ECDD60919E
:10056000F5027091F60228E133E04BE453E0C80154
:10057000E2DD80914C03811107C081E090914B0333
:10058000911103C080E001C081E080934203F092AA
:10059000F402E092F3021093F6020093F502109237
:1005A000E7021092E8021092E9021092EA02E5E2F4
:1005B000F3E0DE01119681918D9383E0EB32F80731
:1005C000D1F720901203109124031093120320916D
:1005D000160330903503309216034091050342FD17
:1005E00007C044604093050380910103877CFDC2EE
:1005F00000910103802F869586958695877090E0FF
:100600008230910509F494C01CF4019749F0D5C2D9
:100610008330910509F478C1049709F406C2CDC26C
:1006200080914203811126C0C0901601D09017011D
:10063000E0901801F090190160912B0370E080E0C8
:1006400090E00E943B19A70196010E9409198111AF
:1006500011C060912C0370E080E090E00E943B1993
:10066000A70196010E940919811104C0809103031A
:100670008F7367C000910303802F807C803409F45E
:10068000B6C5C090F902D090FA02E12CF12CC70156
:10069000B6010E9439192091120130911301409145
:1006A0001401509115010E94091981112EC0802F4B
:1006B0008F73806480930303C0901601D09017015C
:1006C000E0901801F090190120E030E040E853E498
:1006D000C701B6010E94091987FF13C020E030E06E
:1006E000A901C701B6010E94EB1987FD07C0C70128
:1006F000B6010E940D1960932B0379C510922B034C
:1007000076C58FEF80932B0372C5D701C601019682
:10071000A11DB11D009721E0A207B10521F48FEFC3
:100720009FEFA0E0B0E09093FA028093F9025FC5DA
:1007300046FD04C0809137038823E1F180910303D3
:10074000807F80930303077C08620093010310926B
:100750004303C0900A01D0900B01E0900C01F0908F
:100760000D0120E030E040E853E4C701B6010E94EB
:10077000091987FF17C020E030E0A901C701B601C1
:100780000E94EB1987FD09C0C701B6010E940D192F
:1007900060932B0360932C030AC010922B031092DA
:1007A0002C0305C08FEF80932B0380932C031092B2
:1007B0000E0362C380910303282F237030E02130A1
:1007C000310529F02230310509F411C568C0311016
:1007D00002C0837F6CC286958695837090E08130DD
:1007E000910521F0029709F402C512C0211609F4FF
:1007F000FEC4112309F4FBC4809103038C60809331
:100800000303E0910F03F0E0EC5DFC4F1287EFC4AF
:1008100080910F03853048F490E0019680930F0398
:1008200080910303837F84606BC4853009F0DFC44B
:1008300081E080934403C0903A01D0903B01E09066
:100840003C01F0903D0120E030E040E853E4C70176
:10085000B6010E94091987FF13C020E030E0A9010A
:10086000C701B6010E94EB1987FD07C0C701B60199
:100870000E940D1960932D0306C010922D0303C032
:100880008FEF80932D0380910303837F8860809393
:10089000030380910503806480930503A8C433207B
:1008A00089F0807F10920F0310922E0310922F0375
:1008B00010923003109231031092320310923303DE
:1008C00085601EC490913E03992309F490C48C7FE7
:1008D000826080930303898180932E038A818093B1
:1008E0002F038B81809330038C81809331038D8122
:1008F000809332038E818093330381E0809344039D
:1009000040644093050373C4809110038130E1F586
:10091000809104038C7F80930403077C086000931C
:100920000103809103038F73806880930303C09059
:100930001601D0901701E0901801F090190120E005
:1009400030E040E853E4C701B6010E94091987FF6F
:1009500013C020E030E0A901C701B6010E94EB19E5
:1009600087FD07C0C701B6010E940D1960932C03D3
:1009700006C010922C0303C08FEF80932C031092BB
:10098000FA021092F90233C480910403837081301B
:1009900009F42DC42116E1F0612F70E080E090E0B1
:1009A0000E943B1920910E0130910F0140911001DE
:1009B000509111010E94091981110AC0809104030C
:1009C0008C7F81608093040381E0809310030FC4C7
:1009D000809136038111F2CFC090FD02D090FE02CB
:1009E000E12CF12CC701B6010E9439192091320186
:1009F0003091330140913401509135010E94091921
:100A00008823E1F2D701C6010196A11DB11D00970F
:100A100021E0A207B10521F48FEF9FEFA0E0B0E045
:100A20009093FE028093FD02E2C380914203811104
:100A300066C0C0902201D0902301E0902401F09084
:100A4000250160912B0370E080E090E00E943B194B
:100A5000A70196010E940919811151C060912C03D0
:100A600070E080E090E00E943B19A70196010E948F
:100A70000919811144C0809102038F73809302038E
:100A8000077C086100930103809104038C7F8260DE
:100A90008093040310921003C0901E01D0901F0198
:100AA000E0902001F090210120E030E040E853E4A4
:100AB000C701B6010E94091987FF17C020E030E086
:100AC000A901C701B6010E94EB1987FD09C0C70142
:100AD000B6010E940D1960932B0360932C030AC08A
:100AE00010922B0310922C0305C08FEF80932B03E1
:100AF00080932C031092FE021092FD0278C30091A5
:100B00000203802F807C803409F071C3C090F7020B
:100B1000D090F802E12CF12CC701B6010E943919DE
:100B200020912E0130912F014091300150913101DF
:100B30000E94091981112EC0802F8F7380688093C5
:100B40000203C0902201D0902301E0902401F09094
:100B5000250120E030E040E853E4C701B6010E94DF
:100B6000091987FF13C020E030E0A901C701B601D1
:100B70000E94EB1987FD07C0C701B6010E940D193D
:100B800060932C0334C310922C0331C38FEF8093F6
:100B90002C032DC3D701C6010196A11DB11D0097DD
:100BA00021E0A207B10521F48FEF9FEFA0E0B0E0B4
:100BB0009093F8028093F7021AC3231509F47DC0BD
:100BC000332009F47AC080910103909102039E7F43
:100BD0009093020390910503977F90930503909162
:100BE00003039F7C909303038770806180930103CC
:100BF000C0901A01D0901B01E0901C01F0901D01E3
:100C000020E030E040E853E4C701B6010E94091932
:100C100087FF13C020E030E0A901C701B6010E94A0
:100C2000EB1987FD07C0C701B6010E940D1960933B
:100C30002D0306C010922D0303C08FEF80932D0368
:100C4000809105038F7B8093050310924303C0902E
:100C50000A01D0900B01E0900C01F0900D0120E012
:100C600030E040E853E4C701B6010E94091987FF4C
:100C700017C020E030E0A901C701B6010E94EB19BE
:100C800087FD09C0C701B6010E940D1960932B03AF
:100C900060932C030AC010922B0310922C0305C002
:100CA0008FEF80932B0380932C0380910303836049
:100CB00080930303109244039AC28090260190907F
:100CC0002701A0902801B090290160910E0370E0E7
:100CD00080E090E00E943B19A50194010E9409194F
:100CE000811146C090910103809102032091050378
:100CF000277F20930503209103032F7C2093030378
:100D0000977090629093010391E0909343038E73E8
:100D1000806480930203C0902201D0902301E09070
:100D20002401F090250120E030E040E853E4C701C1
:100D3000B6010E94091987FF13C020E030E0A90125
:100D4000C701B6010E94EB1987FD07C0C701B601B4
:100D50000E940D1960932B0306C010922B0303C051
:100D60008FEF80932B031092F8021092F7023FC28C
:100D700070900303872D8295837090E081309105F8
:100D800021F0029709F495C132C260912D0370E001
:100D900080E090E00E943B196F83788789879A876B
:100DA000C0904A01D0904B01E0904C01F0904D0171
:100DB000A70196010E940919811111C080910103B8
:100DC0008F7380930103809102038E7F80930203CF
:100DD00080910503877F80930503872D4FC0409046
:100DE000FB025090FC02612C712CC301B2010E94E5
:100DF00039192091420130914301409144015091B1
:100E000045010E940919811142C0809101038F732D
:100E100080930103809102038E7F8093020380916F
:100E20000503877F80930503C0904601D09047015A
:100E3000E0904801F090490120E030E040E853E4C0
:100E4000C701B6010E94091987FF13C020E030E0F6
:100E5000A901C701B6010E94EB1987FD07C0C701B0
:100E6000B6010E940D1960932D0306C010922D0348
:100E700003C08FEF80932D03809103038F7C8062EA
:100E8000809303031092FC021092FB02B0C18FEF1B
:100E9000481A580A680A780A4114510491E0690610
:100EA000710429F444244A94542C612C712C5092DE
:100EB000FC024092FB0220910203822F8170880F76
:100EC000880F902F9295969596959370892B90E028
:100ED0008230910509F45FC08330910509F47EC02A
:100EE000019709F09DC080910F03853008F45EC022
:100EF0000F73009301032160209302039091EB0292
:100F000080912E03981326C09091EC0280912F03BC
:100F1000981320C09091ED028091300398131AC06D
:100F20009091EE0280913103981314C09091EF02DA
:100F30008091320398130EC09091F0028091330398
:100F4000981308C0C0903601D0903701E090380166
:100F5000F090390120E030E040E853E4C701B601E9
:100F60000E94091987FD04C08FEF80932D033FC1B4
:100F700020E030E0A901C701B6010E94EB1987FF0C
:100F800003C010922D0333C1C701B6010E940D1991
:100F900060932D032CC180911103853071F48091F1
:100FA0000503877F8093050310920F03006C009365
:100FB00001032E7F209302031AC1853008F017C168
:100FC00090E00196809311032091050328602093FF
:100FD0000503FC01E951FD4F148209C1211609F4F2
:100FE00006C1112309F403C180910F0390E001961B
:100FF0008115A1E09A0711F48FEF90E080930F0321
:10100000209101032F732064209301032091020398
:101010002E7F20930203FC01E951FD4F1483E7C0AA
:10102000211609F4E4C02091360130913701409136
:101030003801509139016F81788589859A850E94A0
:1010400009198111D4C0612F70E080E090E00E9406
:101050003B1920912A0130912B0140912C01509194
:101060002D010E9409198111C2C0112309F4BFC0CA
:1010700020E030E040E853E4C501B4010E940919C2
:1010800087FF13C020E030E0A901C501B4010E9430
:10109000EB1987FD07C0C501B4010E940D196093CB
:1010A0000E0390C010920E038DC08FEF80930E033D
:1010B00089C080913703882331F120E030E040E897
:1010C00053E4C501B4010E94091987FF13C020E051
:1010D00030E0A901C501B4010E94EB1987FD07C0EA
:1010E000C501B4010E940D1960930E0306C0109251
:1010F0000E0303C08FEF80930E0380910303806380
:101100008093030374C0211609F471C0112309F4FC
:101110006EC0612F70E080E090E00E943B196B018F
:101120007C0120912A0130912B0140912C0150919A
:101130002D010E940919882309F459C020910E013C
:1011400030910F014091100150911101C701B6017A
:101150000E940919882309F44AC080914403882316
:1011600009F445C0C0903E01D0903F01E09040019D
:10117000F090410120E030E040E853E4C701B601BF
:101180000E94091987FF13C020E030E0A901C701C0
:10119000B6010E94EB1987FD07C0C701B6010E9486
:1011A0000D1960932D0306C010922D0303C08FEF1D
:1011B00080932D031093EB02809103038F7C806159
:1011C00080930303809101038F73806880930103F0
:1011D000809102038E7F8093020381E0809311034C
:1011E000809105038860809305031092EC02B09013
:1011F0001703309217032091130310931303809168
:10120000050385FD04C0806280930503D0C0F09083
:1012100002038F2D8695877090E08230910509F446
:1012200075C08330910509F42BC1019709F043C1C2
:101230000091FF02109100030432B3E11B0730F06C
:10124000809104038F7C809304032DC160912B0354
:1012500070E080E090E00E943B196B017C012091DE
:1012600022013091230140912401509125010E94D7
:1012700009198823E1F020911E0130911F0140914E
:10128000200150912101C701B6010E94091988234C
:1012900071F0209116013091170140911801509181
:1012A0001901C701B6010E940919811104C080917A
:1012B00004038F7C5FC0809104038295837090E06B
:1012C0008130910519F00297A1F01EC0809144036E
:1012D000882321F081E08093480311C031107EC142
:1012E00081E08093490310924A0380910403806354
:1012F00034C1B31449F0311007C010924A038091F1
:1013000004038F7C806229C1C801B0C060912B03A7
:1013100070E080E090E00E943B196B017C0120911D
:1013200022013091230140912401509125010E9416
:1013300009198823E1F020911E0130911F0140918D
:10134000200150912101C701B6010E94091988238B
:1013500071F02091160130911701409118015091C0
:101360001901C701B6010E940919811106C08091B7
:1013700004038F738093040324C160912D0370E0F4
:1013800080E090E00E943B196B017C0120911A01E2
:1013900030911B0140911C0150911D010E940919BF
:1013A000811108C0809104038F738093040380919E
:1013B00002037AC010910403812F82958695869549
:1013C000837090E08130910519F0029751F045C08B
:1013D0008091FF0290910003803C22E1920710F778
:1013E00045C020913601309137014091380150912C
:1013F0003901C701B6010E940919811104C0106C9E
:1014000010930403E4C020914601309147014091BC
:10141000480150914901C701B6010E94091988236A
:1014200071F020914A0130914B0140914C01509153
:101430004D01C701B6010E9409198111CFC08091E9
:1014400004038F7380648093040310924A03109204
:10145000480381E080934903C1C08091FF029091CD
:101460000003803CA2E19A0708F09CCFA0E0B0E026
:101470000196A11DB11D909300038093FF02AEC0A1
:1014800060912B0370E080E090E00E943B19209176
:101490000A0130910B0140910C0150910D010E9405
:1014A000091981119BC08F2D817F88608093020371
:1014B00010924A0314C03320A9F08F2D817F8260DF
:1014C00080930203109200031092FF0280910403A4
:1014D0008F7C80618093040381E080934A031092A3
:1014E00048037AC02117E1F11123D1F1612F70E097
:1014F00080E090E00E943B196B017C0120910E017D
:1015000030910F0140911001509111010E94091971
:10151000882331F120912A0130912B0140912C0137
:1015200050912D01C701B6010E9409198823C1F00D
:10153000809144038823A1F081E080934A03809145
:101540000203817F84608093020310920003109253
:10155000FF02809104038F738068809304033EC070
:1015600060912B0370E080E090E00E943B196B01DA
:101570007C0120912201309123014091240150915E
:1015800025010E9409198823E1F020911E01309164
:101590001F014091200150912101C701B6010E9415
:1015A0000919882371F0209116013091170140919B
:1015B000180150911901C701B6010E940919811142
:1015C0000DC080910203817F866080930203109298
:1015D0004A0381E0809348031092490360914803D5
:1015E00080914E010E94B214609149038091520192
:1015F0000E94B21460914A03809156010E94B21475
:101600008091050384FD06C080618093050380916D
:1016100004036EC180910403982F9C70943009F0EC
:1016200067C100912B038091080310912C030813CC
:1016300024C080910903181320C0C0900A01D090E3
:101640000B01E0900C01F0900D01612F70E080E043
:1016500090E00E943B19A70196010E94091981118F
:101660004BC1602F70E080E090E00E943B19A70121
:1016700096010E94091981113FC180910403837F63
:10168000886080930403602F70E080E090E00E9407
:101690003B196B017C018091220190912301A09163
:1016A0002401B09125018F839887A987BA879C016F
:1016B000AD01C701B6010E940919811126C0612F31
:1016C00070E080E090E00E943B194B015C012091AA
:1016D0000A0130910B0140910C0150910D010E94C3
:1016E0000919882371F020911E0130911F0140914A
:1016F000200150912101C501B4010E9409198111F5
:1017000004C081E080934503EEC0409016015090E4
:1017100017016090180170901901A3019201C7018F
:10172000B6010E940919811128C0612F70E080E084
:1017300090E00E943B194B015C0120910A0130911D
:101740000B0140910C0150910D010E940919882351
:1017500071F020911E0130911F01409120015091A4
:101760002101C501B4010E940919811106C010921E
:1017700045031092460381E067C0612F70E080E06E
:1017800090E00E943B194B015C01A30192010E9471
:101790000919811120C020910A0130910B0140915B
:1017A0000C0150910D01C701B6010E94091988234F
:1017B00071F020911E0130911F0140912001509144
:1017C0002101C701B6010E940919811104C081E0FD
:1017D000809345034EC02F81388549855A85C501C0
:1017E000B4010E940919811132C020910A0130917F
:1017F0000B0140910C0150910D01C701B6010E94EF
:101800000919882371F020911E0130911F01409128
:10181000200150912101C701B6010E9409198111CF
:1018200004C01092450381E00DC02F8138854985A1
:101830005A85C701B6010E940919811108C081E0CB
:1018400080934503809346038093470355C0A301CB
:101850009201C501B4010E94091981110DC0A301B3
:101860009201C701B6010E940919811105C01092A9
:1018700045031092460339C040900A0150900B0175
:1018800060900C0170900D01A3019201C501B4019B
:101890000E940919882371F020911E0130911F01C7
:1018A0004091200150912101C501B4010E94091904
:1018B000811122C0A3019201C701B6010E9409193A
:1018C000882371F020911E0130911F014091200169
:1018D00050912101C701B6010E94091981110CC064
:1018E0001092450381E0809346031092470304C0A1
:1018F000837F84608093040385E493E071D686E45B
:1019000093E084D687E493E097D683E493E0AAD665
:1019100040911503309135033093150380910503F1
:1019200081FD04C082608093050349C020910103BA
:10193000822F877090E082309105B1F01CF40197FE
:1019400039F037C083309105B9F0049739F131C0CF
:101950004317E9F13323D9F1287F23602093010352
:1019600081E080933F0333C0287F246020930103EC
:1019700081E0809340032BC0431749F1311127C008
:1019800080914403287F10923F03882371F02560E3
:101990002093010381E08093410319C080913B03B0
:1019A0008823A9F010924003287F2160209301032F
:1019B0000EC080913C03882351F010924103809126
:1019C0000103887F8260809301031092400380911D
:1019D0000A038093380380910B038093390380912D
:1019E0000C0380933A038EE393E09F938F938DE3F0
:1019F00093E09F938F938CE393E09F938F938BE37C
:101A000093E09F938F9385E2882E83E0982E94E451
:101A1000A92E93E0B92E2AE3C22E23E0D22E31E480
:101A2000E32E33E0F32E09E313E02FE333E048E342
:101A300053E060E473E08EE293E037D1809140039D
:101A400080930A0380913F0380930B0380914103AD
:101A500080930C0390912B039093060380912C03A9
:101A60008093070390930803809309030FB6F894BB
:101A7000DEBF0FBECDBF2A960FB6F894DEBF0FBEF5
:101A8000CDBFDF91CF911F910F91FF90EF90DF902D
:101A9000CF90BF90AF909F908F907F906F905F900E
:101AA0004F903F902F9008950F931F93CF93DF9304
:101AB00010924E0310924D0389E2E4E2F3E0DF015D
:101AC0001D928A95E9F707EE12E08DE3F801119275
:101AD0008A95E9F760915A0170915B0180915C01F0
:101AE00090915D010E94FF1760915E0170915F010E
:101AF00080916001909161010E94FF1761E08091E7
:101B00004E01F7D661E080915201F3D661E08091F9
:101B10005601EFD68091660180930603809167019C
:101B200080930703809168018093250380932603A7
:101B300080932703809328038093290380932A03AB
:101B400080916F0180933E03809169018093080327
:101B500080916A01809309038091700180933B0317
:101B60008091710180933C03C1E0D3E08C818E7F32
:101B70008C8389818F7C898310920D0310923603A8
:101B800010923703D8011D921D921D921C9213973B
:101B900080916201909163019093F4028093F3022B
:101BA00080916401909165019093F6028093F50213
:101BB0006EE173E08CE493E00E948F0068E173E0D3
:101BC0008BE493E00E948F0080916B01809342032D
:101BD00099811A828C8110920E031092EB0210925E
:101BE000EC021092ED021092EE021092EF021092AF
:101BF000F00210920F031092100310921103109232
:101C0000F8021092F7021092FA021092F902109262
:101C1000FC021092FB021092FE021092FD02109242
:101C20002B0310922C031092430310924403109242
:101C30002D0310922E0310922F0310923003109256
:101C400031031092320310923303907399831092F0
:101C500000031092FF021092480310924903109261
:101C60004A031B821092450391E090934603109221
:101C7000470383788D7F8C83188210923F031092E4
:101C800040031092410380916C0180930A0380917C
:101C90006D0180930B0380916E0180930C03DF91A3
:101CA000CF911F910F91089508957F928F929F92E7
:101CB000AF92BF92CF92DF92EF92FF920F931F935A
:101CC000CF93DF93CDB7DEB75C01FB017080FA01E3
:101CD0008081781691F1F1E07F122FC080E090E0D2
:101CE0000E94171AF401808381E090E00E94171A85
:101CF000F401818382E090E00E94171AF40182834C
:101D000083E090E00E94171AF401838384E090E05E
:101D10000E94171AF401848385E090E00E94171A4C
:101D2000F401858386E090E00E94171AEE89FF890E
:101D30008083E889F989708278C0F701F080F60124
:101D40008081F81679F1F1E0FF122CC0F501608175
:101D500080E090E00E941F1AF501618181E090E02F
:101D60000E941F1AF501628182E090E00E941F1A12
:101D7000F501638183E090E00E941F1AF501648100
:101D800084E090E00E941F1AF501658185E090E0F3
:101D90000E941F1A61E086E090E00E941F1AEA8903
:101DA000FB8938C0F901F080F8018081F816A1F1B3
:101DB000F1E0FF1231C060E080E090E00E941F1A65
:101DC00060E081E090E00E941F1A60E082E090E015
:101DD0000E941F1A60E083E090E00E941F1A60E0FA
:101DE00084E090E00E941F1A60E085E090E00E948D
:101DF0001F1A60E086E090E00E941F1AF401108232
:101E000011821282138214821582EE89FF89108258
:101E1000EC89FD89F08209C0E889F9891082EA8994
:101E2000FB891082EC89FD891082DF91CF911F918F
:101E30000F91FF90EF90DF90CF90BF90AF909F9069
:101E40008F907F900895862F642F53C5862F642F1F
:101E500089C5862FBCC5EF920F93FC0112821682B2
:101E60001582178282E991E091838083DF015C967D
:101E7000CD01CC961C9214961C921E921397159627
:101E80001C9215971696A817B907A1F7DF01AE594E
:101E9000BF4F11965C934E93129611963C932E93DE
:101EA00012960C931196EC92179711967C936E9361
:101EB00018968AE090E011969C938E93129684EF88
:101EC00091E011969C938E93139611961C921E92FC
:101ED00051971D921D921D921C921397E459FF4F2A
:101EE00010820F91EF9008952F923F924F925F9240
:101EF0006F927F928F929F92AF92BF92CF92DF921A
:101F0000EF92FF920F931F93CF93DF93CDB7DEB77E
:101F100028970FB6F894DEBF0FBECDBF98878F838A
:101F2000F12C4C0186E6880E911C0F8118850E5904
:101F30001F4FD4018C91F816A0F4AF81B8858D9114
:101F40009C91F801A081B181AF0DB11DFC012081F0
:101F5000318142E06C918F819885F9010995F39464
:101F6000E8CF512CEF81F885E959FF4FFA83E983D7
:101F70000F8118850C591F4FC12CD12C7601C394A9
:101F80008F8198858E599F4F9C838B83A981BA81BD
:101F90008C91581608F088C0A52CB12CAF81B8855B
:101FA0008D919C91F801A081B181AA0DBB1DFC010E
:101FB0002081318141E06C918F819885F9010995EB
:101FC000AF81B8858D919C91F801A081B181AA0D56
:101FD000BB1DFC012281338140E06C918F8198858B
:101FE000F9010995D701C601052C04C0880F991F76
:101FF000AA1FBB1F0A94D2F79C011C0120943094A5
:10200000412CD4018C91EF81F88540815181481693
:1020100048F5642C712CEB81FC81A081B181A60D67
:10202000B71DFA01448155816C918F8198852D836C
:102030003E83FA010995660C771C2D813E81EF8164
:10204000F885E60DF71D892B29F480859185822B73
:10205000932B04C08085918582219321918780876D
:102060004394CFCFF801A081B181AA0DBB1DFA0125
:102070002281338141E06C918F819885F901099526
:10208000AF81B8858D919C91F801A081B181AA0D95
:10209000BB1DFC012081318140E06C918F819885CE
:1020A000F9010995539472CF28960FB6F894DEBFC4
:1020B0000FBECDBFDF91CF911F910F91FF90EF9099
:1020C000DF90CF90BF90AF909F908F907F906F9058
:1020D0005F904F903F902F900895FC0180E090E03A
:1020E000258D368D2617370739F0019636968A30BA
:1020F0009105B1F78FEF9FEF0895DC0126E0629F15
:10210000A00DB11D112490965C934E935F9721E032
:1021100091962C939197FC01E459FF4F20813196C1
:102120000190F081E02D222331F0309749F06111C8
:1021300007C0DC0102C0309719F05C968C910994BD
:102140000895CF92DF92FF920F931F93CF93DF9367
:102150001F92CDB7DEB76C01F62EFC0186E0689FBA
:10216000E00DF11D112411A2878D90A18130910500
:10217000E1F01CF4892B51F042C08230910581F1CD
:10218000039709F03CC040E050E02EC04423B9F171
:1021900041E050E0C601B1DF1FD3F601E85AFF4F1E
:1021A00060837183828393832AC0498315D3F601A8
:1021B000E85AFF4F0081118122813381601B710B2E
:1021C000820B930B72960081118120E030E04981EF
:1021D000061717072807390718F442E050E004C033
:1021E00041110DC043E050E06F2DC6010F90DF910B
:1021F000CF911F910F91FF90DF90CF907ECF0F90E6
:10220000DF91CF911F910F91FF90DF90CF900895B4
:102210002F923F924F925F926F927F928F929F92F6
:10222000AF92BF92CF92DF92EF92FF920F931F93E4
:10223000CF93DF931F92CDB7DEB71C01FC014AE0BC
:102240008FEF9FEF278D30A1232B21F4148E968FD3
:10225000858F11A2415036964111F4CF712C610146
:1022600026E6C20ED11C510187E6A80EB11C410121
:10227000A0E68A0E911C46E0442ED6018C91781679
:1022800008F053C0612C8101070D111D070D111DB0
:10229000085F1F4FF501E0806E1408F044C0F8019C
:1022A00040815181062C02C0569547950A94E2F769
:1022B00041707E9C70011124E60CF11CD401ED915B
:1022C000FC91EE0DFF1D5080B701C101498305DF70
:1022D000498197FD02C0682F1BC0019611F5442368
:1022E00001F180E090E060E070E0F101E80FF91F9B
:1022F000248D211110C0469EF001479EF00D11243F
:10230000E20DF31D548EF68EE58E10A2178E41E07D
:10231000C10117DF06C06F5F7F4F06966A307105F7
:1023200021F76394B7CF7394A8CF20E030E080E02A
:10233000F101E20FF31F91A1911181E02A5F3F4F5C
:102340002C333105A9F70F90DF91CF911F910F9199
:10235000FF90EF90DF90CF90BF90AF909F908F90C5
:102360007F906F905F904F903F902F900895CF9205
:10237000DF92EF92FF920F931F93CF93DF938C0125
:102380002BD2E801C45ADF4FC880D980EA80FB8095
:102390006C197D098E099F09F801E859FF4FC0802B
:1023A000D180E12CF12CC616D706E806F90658F4C0
:1023B000C8019ADDC8012CDF182F0ED268837983FB
:1023C0008A839B8301C010E0812FDF91CF911F9101
:1023D0000F91FF90EF90DF90CF9008950F931F9390
:1023E000CF93DF93EC018C0104591F4F81E0F8017A
:1023F0008083CE01BCDF882349F089A1882331F096
:102400008F8D98A1019711F48C8D03C0F801108273
:1024100080E0DF91CF911F910F910895CF93DF93CB
:10242000EC018EEA91E0DADF8883DF91CF910895A5
:10243000EF920F9353E0E52E04E022E731E045E709
:1024400051E069E771E08EEA91E005DD0F91EF90D0
:102450000895CF93DF93EC01862F6F831E82B7D24E
:10246000892B11F083E08E83B7D1688379838A83C7
:102470009B83DF91CF910895FF920F931F93CF938A
:10248000DF93EC018F81A3D2FF24F394892B09F40D
:10249000F12C8E81982F977F9E8386958170F816F8
:1024A00049F09AD1688379838A839B838E8192E0F5
:1024B00089271FC091D1088119812A813B81601B26
:1024C000710B820B930B0C811D8120E030E06017B3
:1024D00071078207930770F08E8181708F1551F01C
:1024E0007BD1688379838A839B838E8191E089275E
:1024F00088608E838E8183FB882780F9DF91CF915E
:102500001F910F91FF900895EF92FF920F931F93E9
:10251000CF93DF938C01EB01809185018823E9F053
:1025200062E08AE0E6D162E089E0E3D16AE070E04F
:1025300085E292E08EDF85E0E82EF12CF0922A020F
:10254000E092290269E070E08DE192E082DFF09292
:102550002202E09221021092850185E292E08CDF56
:102560008DE192E089DF80912302817090912B02AE
:1025700090FF04C091E0F801908302C0F80110823E
:10258000882319F081E0888301C01882DF91CF9100
:102590001F910F91FF90EF900895109225021092D5
:1025A000260210922702109228028AE090E090936F
:1025B0002A028093290210922B0210922C02109270
:1025C0001D0210921E0210921F0210922002909380
:1025D0002202809321021092230210922402089575
:1025E000CF93DF93EC0180918601882329F061E08D
:1025F00081E17FD1109286018881882311F061E00A
:1026000001C060E081E1DF91CF91ACC1CF93DF9356
:10261000EC0180918701882329F061E082E169D192
:10262000109287018881882311F061E001C060E089
:1026300082E1DF91CF9196C1CF93DF93EC0180913E
:102640008801882329F061E083E153D11092880149
:102650008881882311F061E001C060E083E1DF91AF
:10266000CF9180C1CF93DF93EC01809189018823C2
:1026700029F061E080E13DD11092890188818823B1
:1026800011F061E001C060E080E1DF91CF916AC1AB
:102690001F920F920FB60F9211242F933F934F93D7
:1026A0005F936F937F938F939F93AF93BF93EF93BA
:1026B000FF9380912D0290912E02892B29F0E091B9
:1026C0002D02F0912E020995FF91EF91BF91AF91EC
:1026D0009F918F917F916F915F914F913F912F913A
:1026E0000F900FBE0F901F9018951F920F920FB66C
:1026F0000F9211242F933F934F935F936F937F9388
:102700008F939F93AF93BF93EF93FF9380912F028B
:1027100090913002892B29F0E0912F02F091300244
:102720000995FF91EF91BF91AF919F918F917F910B
:102730006F915F914F913F912F910F900FBE0F902E
:102740001F9018951F920F920FB60F9211242F937E
:102750003F938F939F93AF93BF9380913202909159
:102760003302A0913402B09135023091310223E05E
:10277000230F2D3720F40196A11DB11D05C026E8B9
:10278000230F0296A11DB11D2093310280933202C6
:1027900090933302A0933402B093350280913602B5
:1027A00090913702A0913802B09139020196A11D93
:1027B000B11D8093360290933702A0933802B093F4
:1027C0003902BF91AF919F918F913F912F910F90BF
:1027D0000FBE0F901F9018952FB7F894609132029A
:1027E0007091330280913402909135022FBF089589
:1027F000789484B5826084BD84B5816084BD85B5DC
:10280000826085BD85B5816085BDEEE6F0E08081A2
:1028100081608083E1E8F0E01082808182608083C3
:10282000808181608083E0E8F0E080818160808346
:10283000E1EBF0E0808184608083E0EBF0E0808178
:1028400081608083EAE7F0E080818460808380811A
:1028500082608083808181608083808180688083C2
:102860001092C10008958E3008F08E50877020912C
:102870008A0190E4299F90011124822B80937C008F
:1028800080917A00806480937A0080917A0086FD3E
:10289000FCCF809178002091790090E0922B0895F0
:1028A000833081F028F4813099F08230A1F00895CE
:1028B0008730A9F08830B9F08430D1F4809180005D
:1028C0008F7D03C0809180008F7780938000089572
:1028D00084B58F7702C084B58F7D84BD08958091C3
:1028E000B0008F7703C08091B0008F7D8093B000DF
:1028F0000895CF93DF9390E0FC01E458FF4F2491BB
:10290000FC01E057FF4F8491882349F190E0880F44
:10291000991FFC01E854FF4FA591B49182559F4F38
:10292000FC01C591D4919FB7611108C0F8948C91B6
:10293000209582238C93888182230AC0623051F4CF
:10294000F8948C91322F309583238C938881822B3D
:10295000888304C0F8948C91822B8C939FBFDF9165
:10296000CF9108950F931F93CF93DF931F92CDB70D
:10297000DEB7282F30E0F901E859FF4F8491F901C3
:10298000E458FF4F1491F901E057FF4F04910023E1
:10299000C1F0882319F0698383DF6981E02FF0E0BB
:1029A000EE0FFF1FE255FF4FA591B4919FB7F8942A
:1029B0008C91611103C01095812301C0812B8C93F0
:1029C0009FBF0F90DF91CF911F910F910895CF93EB
:1029D000DF93282F30E0F901E859FF4F8491F90186
:1029E000E458FF4FD491F901E057FF4FC491CC2335
:1029F00089F0811155DFEC2FF0E0EE0FFF1FEC5551
:102A0000FF4FA591B4912C912D2381E090E021F40A
:102A100080E002C080E090E0DF91CF910895FC015A
:102A2000818D228D90E0805C9F4F821B91098F7376
:102A300099270895FC01918D828D981731F0828D30
:102A4000E80FF11D858D90E008958FEF9FEF0895B9
:102A5000FC01918D828D981761F0828DDF01A80FA6
:102A6000B11D5D968C91928D9F5F9F73928F90E0C8
:102A700008958FEF9FEF0895FC01848DDF01A80F6B
:102A8000B11DA35ABF4F2C91848D90E001968F7396
:102A90009927848FA689B7892C93A089B1898C91B5
:102AA00080648C93938D848D981306C00288F3897B
:102AB000E02D80818F7D80830895CF93DF93EC019B
:102AC000888D8823C1F0EA89FB89808185FD05C056
:102AD000A889B9898C9186FD0EC00FB607FCF5CF89
:102AE000808185FFF2CFA889B9898C9185FFEDCFD0
:102AF000CE01C2DFE8CFDF91CF910895CF92DF9270
:102B0000FF920F931F93CF93DF931F92CDB7DEB742
:102B10006C01DC015B969C915B975C968C915C9759
:102B2000981307C05096ED91FC915197808185FDD7
:102B300031C0F601038D10E00F5F1F4F0F73112797
:102B4000F02EF601848DF81210C00FB607FCF9CFF5
:102B5000D6015096ED91FC915197808185FFF1CF80
:102B6000C601698389DF6981ECCF838DE80FF11D90
:102B7000E35AFF4F6083D6015B960C935B975296A6
:102B8000ED91FC91539780818062808381E058961B
:102B90008C930DC0D6015696ED91FC9157976083AA
:102BA0005096ED91FC91519780818064808381E003
:102BB00090E00F90DF91CF911F910F91FF90DF90E8
:102BC000CF9008951F920F920FB60F9211242F935A
:102BD0008F939F93EF93FF93E0914A02F0914B0202
:102BE0008081E0915002F091510282FD12C09081EB
:102BF000809153028F5F8F7320915402821751F09E
:102C0000E0915302F0E0E65CFD4F958F8093530214
:102C100001C08081FF91EF919F918F912F910F9033
:102C20000FBE0F901F9018951F920F920FB60F9224
:102C300011242F933F934F935F936F937F938F93C1
:102C40009F93AF93BF93EF93FF938AE392E014DFD8
:102C5000FF91EF91BF91AF919F918F917F916F9174
:102C60005F914F913F912F910F900FBE0F901F904A
:102C7000189510923D0210923C0288EE93E0A0E07D
:102C8000B0E080933E0290933F02A0934002B09345
:102C900041028CE991E090933B0280933A0285ECEB
:102CA00090E0909347028093460284EC90E09093EA
:102CB00049028093480280EC90E090934B0280930D
:102CC0004A0281EC90E090934D0280934C0282EC9A
:102CD00090E090934F0280934E0286EC90E09093A8
:102CE000510280935002109253021092540210929B
:102CF0005502109256020895AF92BF92CF92DF9282
:102D0000EF92FF920F931F93CF93DF936C017B01A0
:102D1000C0E0D0E000E010E0F601EC0FFD1F4AE05B
:102D200050E06281C701D6D05C016EE2C70168D075
:102D30008A0D9B1D080F191F2196C330D10561F71D
:102D40004AE050E0F6016581C701C4D0800F911FB1
:102D5000DF91CF911F910F91FF90EF90DF90CF9077
:102D6000BF90AF9008958CEA91E09093D802809341
:102D7000D7021092D9021092DA021092DB0210925E
:102D8000DC020895CF92DF92EF92FF920F931F9390
:102D9000CF93DF936C017A01EB01E60EF71E00E0A2
:102DA00010E0CE15DF0561F06991D601ED91FC913F
:102DB0000190F081E02DC6010995080F191FF1CF90
:102DC000C801DF91CF911F910F91FF90EF90DF909D
:102DD000CF9008956115710581F0DB010D90002001
:102DE000E9F7AD0141505109461B570BDC01ED914C
:102DF000FC910280F381E02D099480E090E0089539
:102E0000DC01ED91FC910190F081E02D09948F920D
:102E10009F92AF92BF92CF92DF92EF92FF920F9369
:102E20001F93CF93DF93CDB7DEB7A1970FB6F8947A
:102E3000DEBF0FBECDBF7C01C42EE52FCB01D22E4D
:102E400019A221E02D1510F02AE0D22E8E010F5D7F
:102E50001F4F8D2C912CA12CB12C6C2D7E2FA501F8
:102E60009401BDD28C2DD29E8019112401501109DC
:102E70008A3014F4805D01C0895CF80180832115DB
:102E800031054105510521F0C22EE32FCA01E5CFDE
:102E9000B801C7019FDFA1960FB6F894DEBF0FBE41
:102EA000CDBFDF91CF911F910F91FF90EF90DF90F9
:102EB000CF90BF90AF909F908F90089521153105CE
:102EC00041F4DC01ED91FC910190F081E02D642F43
:102ED00009949DCF9A01462F50E060E070E0EECF5C
:102EE000813039F018F0823051F0089510926E0060
:102EF000089580916F008D7F80936F000895809179
:102F000070008D7F8093700081E08093B00080918D
:102F1000B100887F84608093B1001092B30008955F
:102F2000CF93C82F80918B018C1307C0E2ECF0E0A7
:102F300084919FEF90938B0101C08FEFD1DF60E010
:102F40008C2FCF910FCD1F920F920FB60F9211249D
:102F50002F933F934F935F936F937F938F939F93A1
:102F6000AF93BF93EF93FF938091E0029091E102C2
:102F7000A091E202B091E302892B8A2B8B2B51F1B5
:102F80009091DD02E091DE02F091DF0280818927DD
:102F900080838091E0029091E102A091E202B091E1
:102FA000E302181619061A061B06BCF48091E0020B
:102FB0009091E102A091E202B091E3020197A10990
:102FC000B1098093E0029093E102A093E202B093F2
:102FD000E30203C080918B01A3DFFF91EF91BF91CA
:102FE000AF919F918F917F916F915F914F913F91A1
:102FF0002F910F900FBE0F901F9018950895862F58
:1030000060E077CC1F920F920FB60F9211242F938E
:103010003F934F935F936F937F938F939F93AF9360
:10302000BF93EF93FF9386E09FEF9093850080938B
:10303000840032D0FF91EF91BF91AF919F918F911A
:103040007F916F915F914F913F912F910F900FBEA4
:103050000F901F90189586E09FEF909385008093C6
:103060008400AFE6B0E08C918E7F8C93E0E8F0E0D6
:1030700080818C7F8083E1E8F0E08081877E80839F
:1030800080818360808380818B7F80838C9181604D
:103090008C93089581E008952091E40281E0820FED
:1030A0008093E402222349F081E090E09093E602CD
:1030B0008093E5022093E402089578940E942D0104
:1030C000F8948091E40281508093E40208950F9374
:1030D0001F93CF93DF931F92CDB7DEB781E0898333
:1030E00087DB8CDF00918C0110918D01F80111823A
:1030F00010820E94540DAFDF21E0F80180819181A0
:10310000892B09F020E02983789478948981882399
:1031100081F021E0F80180819181892B09F020E084
:1031200029838981882311F0B5DF01C080E089837C
:10313000EDCF0E94540EF89480E090E00F90DF9164
:10314000CF911F910F9108955058BB27AA270ED0F9
:1031500008C1F9D030F0FED020F031F49F3F11F4D7
:103160001EF4EEC00EF4E095E7FBE4C0E92F0AD1AF
:1031700080F3BA17620773078407950718F071F494
:103180009EF522C10EF4E0950B2EBA2FA02D0B0157
:10319000B90190010C01CA01A0011124FF27591B9C
:1031A00099F0593F50F4503E68F11A16F040A22FA2
:1031B000232F342F4427585FF3CF46953795279513
:1031C000A795F0405395C9F77EF41F16BA0B620B12
:1031D000730B840BBAF09150A1F0FF0FBB1F661F59
:1031E000771F881FC2F70EC0BA0F621F731F841F9C
:1031F00048F4879577956795B795F7959E3F08F0C2
:10320000B3CF9395880F08F09927EE0F9795879580
:1032100008956CD008F481E00895BCD088F09F57E1
:1032200090F0B92F9927B751A0F0D1F0660F771F12
:10323000881F991F1AF0BA95C9F712C0B13081F0F2
:10324000C3D0B1E00895C0C0672F782F8827B85F3A
:1032500039F0B93FCCF3869577956795B395D9F753
:103260003EF490958095709561957F4F8F4F9F4F5D
:103270000895E89409C097FB3EF490958095709569
:1032800061957F4F8F4F9F4F9923A9F0F92F96E9B2
:10329000BB279395F695879577956795B795F11127
:1032A000F8CFFAF4BB0F11F460FF1BC06F5F7F4FC4
:1032B0008F4F9F4F16C0882311F096E911C07723D6
:1032C00021F09EE8872F762F05C0662371F096E8DF
:1032D000862F70E060E02AF09A95660F771F881FAE
:1032E000DAF7880F9695879597F90895990F000852
:1032F000550FAA0BE0E8FEEF16161706E807F907C8
:10330000C0F012161306E407F50798F0621B730B62
:10331000840B950B39F40A2661F0232B242B252BE3
:1033200021F408950A2609F4A140A6958FEF811D86
:10333000811D089597F99F6780E870E060E0089527
:103340009FEF80EC089500240A94161617061806BD
:103350000906089500240A94121613061406050699
:103360000895092E0394000C11F4882352F0BB0F2A
:1033700040F4BF2B11F460FF04C06F5F7F4F8F4F8D
:103380009F4F089557FD9058440F551F59F05F3FC8
:1033900071F04795880F97FB991F61F09F3F79F077
:1033A00087950895121613061406551FF2CF4695F9
:1033B000F1DF08C0161617061806991FF1CF86957B
:1033C0007105610508940895E894BB27662777275F
:1033D000CB0197F908958ADF08F48FEF0895A1E2F1
:1033E0001A2EAA1BBB1BFD010DC0AA1FBB1FEE1F7F
:1033F000FF1FA217B307E407F50720F0A21BB30BCA
:10340000E40BF50B661F771F881F991F1A9469F745
:1034100060957095809590959B01AC01BD01CF01A1
:103420000895EE0FFF1F0590F491E02D0994F9998E
:10343000FECF92BD81BDF89A992780B50895262FB9
:10344000F999FECF1FBA92BD81BD20BD0FB6F89489
:0E345000FA9AF99A0FBE01960895F894FFCFEC
:10345E0000004F038000010000000000404100000A
:10346E00284200603845000050410000C040000076
:10347E006041000030410000803F00000C4200809F
:10348E003B4500606A470000A0400000E04000009D
:10349E00004100401C4600001041000000400C009E
:1034AE0000000B0000000D000000060000000700E9
:1034BE0000000000000000000000000000000000FE
:1034CE00000008070605040302313233343536375F
:1034DE0038392A3023010101010101FF4D0300009B
:1034EE000000230F260F290F000000007E15C216C4
:0E34FE000F1528151A155D15000000007C162C
:00000001FF
