:1000000065C000000C948A0D0C94B70D87C00000E9
:1000100085C0000083C0000081C000000C94E51181
:100020007DC000007BC0000079C0000077C00000E8
:1000300075C000000C94441271C000006FC0000035
:100040000C94E40D6BC000000C9424100C9456101A
:1000500065C0000063C0000061C000005FC0000018
:100060005DC000005BC0000000000008000201004D
:100070000003040700000000000000000102040863
:100080001020408001020408102001020408102002
:10009000040404040404040402020202020203032E
:1000A00003030303000000002300260029000000D2
:1000B0000000250028002B0000000000240027007D
:1000C0002A0002005A0C0F0D7B10F51011241FBEE0
:1000D000CFEFD8E0DEBFCDBF11E0A0E0B1E0E6E1B8
:1000E000F7E202C005900D92AC37B107D9F723E0D3
:1000F000ACE7B1E001C01D92AF30B207E1F710E00C
:10010000CCECD0E004C02297FE010E946F13C43CE7
:10011000D107C9F70E94A9120C94891371CFFB0172
:100120002481207824831182108213821282158206
:10013000FC0110820895CF93DF93DC01EA01F901FD
:10014000448146FD04C04C7B4264448313C0842F29
:100150008370813009F041C020813181263431051E
:1001600028F4828193818634910550F08481807FC8
:10017000826084831882158284818F7C806254C05F
:10018000542F5C70543089F4A83E83E0B807F8F02F
:10019000A83EB34009F449C0C901A0E0B0E001960F
:1001A000A11DB11D9183808304C0A93E23E0B20745
:1001B00020F0437F446044831EC0A83EB340A9F1B1
:1001C000A0E0B0E00196A11DB11D93838283437F1F
:1001D000486044831182108228C08581882371F091
:1001E0004C7C416044831182108281E08883848149
:1001F000837F846084831382128217C040734031EE
:10020000A1F0693E83E0780720F0A83EB34038F0C3
:100210000CC0683E734049F0A93EB34030F081E025
:10022000858384818F7C80618483DF91CF91089561
:100230004F925F926F927F928F929F92AF92BF92F6
:10024000CF92DF92EF92FF920F931F93CF93DF93A2
:1002500000D000D000D0CDB7DEB789EE92E00E948A
:10026000500C6AEF72E089EF92E00E94C60CF090A9
:10027000F90280912B010E94750E2C016091BD0244
:100280007091BE022DED32E04DE053E054DF8091DD
:100290002F010E94750E3C016091BF027091C00257
:1002A00023EE32E04EE053E046DF80910D0361E043
:1002B000811105C080910E03811101C060E0EAEE5A
:1002C000F2E0DE01119681918D9322E0E03FF2078A
:1002D000D1F74091D7021091E9021093D7023091E3
:1002E000D8022091F9022093D8027091DB0200918C
:1002F000FA020093DB028091CC0287FD1DC080686A
:100300008093CC028091C902877C80618093C9026E
:10031000809115018093F2028091CD02877F8093B6
:10032000CD0210920503809112018093F002809318
:10033000F1028091CA02FDC15091C902852F8695B4
:1003400086958695877090E08230910509F476C095
:100350001CF4019749F0C9C18330910509F42FC1FC
:10036000049709F45FC1C1C161111EC08091F00200
:1003700090911401891318C09091F102981314C040
:100380008091CB029091C902977C98629093C902A8
:1003900010920503909112019093F0029093F10254
:1003A0001092D302837C66C0321711F0211106C06F
:1003B00080911301181308C0411731F09091F00299
:1003C000809114019817E1F2B090CB028B2D8073CD
:1003D000803109F41BC3C090C302D090C402E12C49
:1003E000F12CC701B6010E94EA1220910A01309156
:1003F0000B0140910C0150910D010E94E6128111F8
:100400000AC08B2D8F7C80618093CB028091140178
:100410008093F002FBC2D701C6010196A11DB11D58
:10042000009731E0A307B10521F48FEF9FEFA0E023
:10043000B0E09093C4028093C302E8C28091CD02E1
:1004400083FF20C08091CB029091CA029F7390934A
:10045000CA029091C902977C98629093C902109247
:100460000503909112019093F0029093F102109283
:10047000D302807F88608093CB021092C6021092D4
:10048000C502C4C2321711F02111DCCF3091CA026B
:10049000832F829586958695837090E081309105B3
:1004A00021F0029709F4B2C24BC0011109C080913A
:1004B000CB028C7F8093CB02306C3093CA023CC15C
:1004C0003091CB02832F837090E08130910521F031
:1004D000029709F49BC218C0411761F0112351F033
:1004E00033603093CB02E091D402F0E0E751FD4F4E
:1004F00012878CC2222309F489C28091CB028C7F9F
:1005000082608093CB0255C08091D402853048F43C
:1005100090E001968093D4023C7F31603093CB020F
:1005200075C2853009F072C281E080930603809124
:100530001B018093F2023C7F32603093CB0239C0C2
:100540000023C9F03F7330643093CA021092D40282
:100550001092F3021092F4021092F5021092F60239
:100560001092F7021092F8028091CB028C7F81608A
:100570008093CB024BC280910103882309F446C2C9
:100580003F7330683093CA0289818093F3028A8175
:100590008093F4028B818093F5028C818093F60224
:1005A0008D818093F7028E818093F80281E08093A1
:1005B00006038091CD0288608093CD0227C280918E
:1005C000D502813099F48091CB02577C58605093CA
:1005D000C9028F7080628093CB0280911401809356
:1005E000F1021092C4021092C30210C28091CB0299
:1005F000807C803409F40AC2411771F080911301A4
:1006000018130AC08091CB028F7380648093CB0251
:1006100081E08093D502FAC1321709F4F7C12111A4
:10062000F1CFF4C1611122C08091F00290911701C5
:1006300089131CC09091F102981318C08091CA02CE
:100640008F7C8093CA028091C902877C88618093E5
:10065000C9028091CB028F7380688093CB02109285
:10066000D502809116018093F00229C0321711F053
:10067000211106C080911901181308C0411731F0EB
:100680009091F102809117019817C1F24091CA022E
:10069000842F8073803109F0B9C18091C10290919B
:1006A000C20220910E0130910F018217930751F47D
:1006B000842F8F7C80628093CA028091170180937F
:1006C000F102A4C1A0E0B0E00196A11DB11D009708
:1006D00021E0A207B10524F08FEF9FEFA0E0B0E08A
:1006E0009093C2028093C10291C1701741F100231F
:1006F00031F19091C9028091CA028E7F2091CD0282
:100700003091CB02337F3093CB02977090619093FE
:10071000C902909115019093F2022E7F277F2093BA
:10072000CD0210920503909112019093F0029093E4
:10073000F102806C8093CA021092060367C1E091B7
:1007400018018091D3028E1322C09091C90280912A
:10075000CA022091CD022E7F2093CD022091CB02A0
:10076000237F2093CB02977090629093C90291E00F
:10077000909305038E7C80618093CA02809117015B
:100780008093F0021092C2021092C1023FC1709198
:10079000CB02872F86958695837090E081309105F6
:1007A00021F0029709F4F6C031C1F091F202609194
:1007B0001E01F61310C08091C9028F738093C90285
:1007C0008091CA028E7F8093CA028091CD028E7F73
:1007D0008093CD021EC08091C5029091C6022091E7
:1007E00010013091110182179307C1F48091C90261
:1007F0008F738093C9028091CA028E7F8093CA0250
:100800008091CD028E7F8093CD0280911D018093D7
:10081000F202737F78607093CB022FCEA0E0B0E03D
:100820000196A11DB11D009731E0A307B10524F089
:100830008FEF9FEFA0E0B0E09093C6028093C502D7
:100840002091CA02822F8170880F880F952F929570
:10085000969596959370892B90E082309105E9F1F9
:100860008330910509F45CC0019709F07BC0809149
:10087000D4028530E8F15F735093C9022160209360
:10088000CA029091B7028091F30298131EC0909112
:10089000B8028091F402981318C09091B902809127
:1008A000F502981312C09091BA028091F602981343
:1008B0000CC09091BB028091F702981306C09091F2
:1008C000BC028091F802981719F06093F2029EC062
:1008D00080911A018093F20299C08091D6028530EE
:1008E00071F48091CD028E7F8093CD021092D4025C
:1008F000506C5093C9022E7F2093CA0287C0853066
:1009000008F084C090E001968093D6022091CD0239
:1009100021602093CD02FC01E954FD4F108276C086
:10092000411709F473C0112309F470C08091D402F7
:1009300090E00196811521E0920711F48FEF90E08D
:100940008093D4022091C9022F7320642093C9029E
:100950002091CA022E7F2093CA02FC01E954FD4F68
:10096000108354C0411709F451C080911A01F81343
:100970004DC080911901181349C0112309F446C0D4
:10098000E093D3025F7350685093C9022E7F209387
:10099000CA0232C0321749F031E0F31206C0E093C8
:1009A000D3027C607093CB0231C0411779F11123DF
:1009B00069F180911901181749F1809113011817F5
:1009C00029F180910603882309F180911C0180930D
:1009D000F2021093B7028091CB02837F84608093F0
:1009E000CB028091C9028F7380688093C902809185
:1009F000CA028E7F8093CA0281E08093D6028091E2
:100A0000CD0281608093CD021092B8024091DC0249
:100A10000093DC023091D9021093D9028091CD026B
:100A200082FD04C084608093CD027CC02091CA0204
:100A3000822F8695877090E08230910509F453C02B
:100A40008330910509F4BBC0019709F0C5C08091BE
:100A5000C7029091C802843233E1930730F080914D
:100A6000CC02837F8093CC02B0C02091F002309101
:100A70001701231741F030911601231721F030910F
:100A80001401231304C08091CC02837F3DC02091C8
:100A9000CC0226952695237030E02130310521F0D7
:100AA00022303105A1F081C080910603882321F016
:100AB00081E080930A0312C00111E3C081E08093BA
:100AC0000B0310920C038091CC028C60BCC04017C9
:100AD00009F46BC0011169C010920C038091CC0223
:100AE000837F8860B0C08091F002909117018917D0
:100AF00041F090911601891721F09091140189130A
:100B000006C08091CC028F7C8093CC02ADC0209136
:100B1000F2028091150128130CC08091CC028F7CC9
:100B20008093CC028091CA02817F88608093CA0240
:100B300050C03091CC02832F8295837090E0813039
:100B4000910519F0029751F027C08091C70290914A
:100B5000C802803C22E1920700F727C080911A0169
:100B6000281304C030633093CC0284C080911D01EF
:100B7000281721F080911E01281383C08091CC0298
:100B80008F7C80618093CC0210920C0310920A0338
:100B900081E080930B0375C08091C7029091C802D9
:100BA000803C32E1930708F0B8CFA0E0B0E00196B6
:100BB000A11DB11D9093C8028093C70262C090919D
:100BC000F0028091120198135CC0217F286020936D
:100BD000CA0210920C0313C00023A1F0217F2260EF
:100BE0002093CA021092C8021092C7028091CC02D0
:100BF000837F84608093CC0281E080930C03109209
:100C00000A033DC0311711F1112301F18091130145
:100C10001817E1F0809119011817C1F080910603AF
:100C20008823A1F081E080930C038091CA02817F28
:100C300084608093CA021092C8021092C702809109
:100C4000CC028F7C80628093CC021BC08091F0022A
:100C500090911701891741F090911601891721F0A1
:100C60009091140189130DC08091CA02817F866022
:100C70008093CA0210920C0381E080930A031092C1
:100C80000B0360910A0380911F010E94F40E609192
:100C90000B03809123010E94F40E60910C0380915C
:100CA00027010E94F40E8091CD0281FD06C0826072
:100CB0008093CD028091CC0286C08091CC02982F87
:100CC0009370913009F07FC09091F0022091CE0294
:100CD0008091F10292130AC02091CF02821306C0C4
:100CE00020911201821373C0981371C02091CC021D
:100CF0002C7F22602093CC023091170193130CC0FB
:100D000020911201821721F020911601821304C054
:100D100081E08093070352C02091140192130EC00A
:100D200040911201841721F040911601841306C0EE
:100D3000109207031092080381E023C082130CC0B5
:100D400040911201941721F040911601941304C0B0
:100D500081E0809307031EC0831316C02091120107
:100D6000921721F020911601921304C010920703EC
:100D700081E005C0981311C081E080930703809340
:100D800008038093090323C0821307C0981305C08A
:100D9000109207031092080313C0209112018217CA
:100DA00021F030911601831312C0921721F0809127
:100DB000160198130CC01092070381E0809308037A
:100DC0001092090304C08C7F81608093CC0287E07D
:100DD00093E048D688E093E05BD689E093E06ED656
:100DE00085E093E081D64091DA023091FA023093A7
:100DF000DA028091CC0286FD04C080648093CC022C
:100E000049C02091C902822F877090E082309105FD
:100E1000B1F01CF4019739F037C083309105B9F077
:100E2000049739F131C04317E9F13323D9F1287F11
:100E300023602093C90281E08093020333C0287F9E
:100E400024602093C90281E0809303032BC04317E1
:100E500049F1311127C080910603287F10920203C7
:100E6000882371F025602093C90281E080930403F8
:100E700019C08091FE028823A9F010920303287FF5
:100E800021602093C9020EC08091FF02882351F097
:100E9000109204038091C902887F82608093C90206
:100EA000109203038091D0028093FB028091D102C3
:100EB0008093FC028091D2028093FD0281E093E056
:100EC0009F938F9380E093E09F938F938FEF92E0B7
:100ED0009F938F938EEF92E09F938F938AEE882E4D
:100EE00082E0982E96E0A92E93E0B92E2DEFC22E27
:100EF00022E0D22E34E0E32E33E0F32E0CEF12E0AA
:100F000022E033E04BEF52E063E073E083EF92E0E6
:100F10000ED1809103038093D002809102038093CD
:100F2000D102809104038093D2025092BE0240927B
:100F3000BD027092C0026092BF028091F002809365
:100F4000CE028091F1028093CF020FB6F894DEBFFB
:100F50000FBECDBF26960FB6F894DEBF0FBECDBF35
:100F6000DF91CF911F910F91FF90EF90DF90CF9085
:100F7000BF90AF909F908F907F906F905F904F90B9
:100F80000895CF93DF931092B6021092B50286E2D5
:100F9000E9EEF2E0DF011D928A95E9F7C7EBD2E0B6
:100FA00082E3FE0111928A95E9F760912B0170911D
:100FB0002C0180912D0190912E010E94411260918F
:100FC0002F017091300180913101909132010E9486
:100FD000411261E080911F01CED661E08091230132
:100FE000CAD661E080912701C6D6809133019091E5
:100FF00034019093BE028093BD028091350190919F
:1010000036019093C0028093BF0280913701809394
:10101000EA028093EB028093EC028093ED028093CE
:10102000EE028093EF0280913D0180930103809155
:1010300038018093CE02809139018093CF02809154
:101040003E018093FE0280913F018093FF026DED8F
:1010500072E08DE093E063D863EE72E08EE093E09F
:101060005ED8E9ECF2E0128284811092D3021882F9
:101070001092B8021092B9021092BA021092BB02FA
:101080001092BC021092D4021092D5021092D60295
:101090001092C2021092C1021092C4021092C302B6
:1010A0001092C6021092C5021092F0021092F10244
:1010B00010920503109206031092F2021092F302AE
:1010C0001092F4021092F5021092F6021092F702BA
:1010D0001092F80211821092C8021092C702109268
:1010E0000A0310920B0310920C03827F8D7F84837E
:1010F0001092070381E08093080310920903138282
:101100001082109202031092030310920403809144
:101110003A018093D00280913B018093D10280916B
:101120003C018093D202DF91CF91089508957F9280
:101130008F929F92AF92BF92CF92DF92EF92FF92E7
:101140000F931F93CF93DF93CDB7DEB75C01FB0105
:101150007080FA018081781691F1F1E07F122FC042
:1011600080E090E00E947313F401808381E090E0BE
:101170000E947313F401818382E090E00E94731354
:10118000F401828383E090E00E947313F40183836F
:1011900084E090E00E947313F401848385E090E082
:1011A0000E947313F401858386E090E00E9473131C
:1011B000EE89FF898083E889F989708278C0F70118
:1011C000F080F6018081F81679F1F1E0FF122CC071
:1011D000F501608180E090E00E947B13F501618160
:1011E00081E090E00E947B13F501628182E090E053
:1011F0000E947B13F501638183E090E00E947B13E2
:10120000F501648184E090E00E947B13F501658123
:1012100085E090E00E947B1361E086E090E00E9410
:101220007B13EA89FB8938C0F901F080F8018081DD
:10123000F816A1F1F1E0FF1231C060E080E090E02B
:101240000E947B1360E081E090E00E947B1360E0ED
:1012500082E090E00E947B1360E083E090E00E94D7
:101260007B1360E084E090E00E947B1360E085E007
:1012700090E00E947B1360E086E090E00E947B1388
:10128000F401108211821282138214821582EE8977
:10129000FF891082EC89FD89F08209C0E889F9890B
:1012A0001082EA89FB891082EC89FD891082DF9126
:1012B000CF911F910F91FF90EF90DF90CF90BF9053
:1012C000AF909F908F907F900895862F642F53C585
:1012D000862F642F89C5862FBCC5EF920F93FC0122
:1012E000128216821582178280E691E091838083B4
:1012F000DF015C96CD01CC961C9214961C921E9236
:10130000139715961C9215971696A817B907A1F76B
:10131000DF01AE59BF4F11965C934E931296119612
:101320003C932E9312960C931196EC92179711966C
:101330007C936E9318968AE090E011969C938E931E
:10134000129684EF91E011969C938E9313961196CA
:101350001C921E9251971D921D921D921C921397E2
:10136000E459FF4F10820F91EF9008952F923F9212
:101370004F925F926F927F928F929F92AF92BF92A5
:10138000CF92DF92EF92FF920F931F93CF93DF9351
:10139000CDB7DEB728970FB6F894DEBF0FBECDBF2E
:1013A00098878F83F12C4C0186E6880E911C0F8163
:1013B00018850E591F4FD4018C91F816A0F4AF81F7
:1013C000B8858D919C91F801A081B181AF0DB11DBF
:1013D000FC012081318142E06C918F819885F90177
:1013E0000995F394E8CF512CEF81F885E959FF4F27
:1013F000FA83E9830F8118850C591F4FC12CD12C1A
:101400007601C3948F8198858E599F4F9C838B83DF
:10141000A981BA818C91581608F088C0A52CB12CEE
:10142000AF81B8858D919C91F801A081B181AA0D01
:10143000BB1DFC012081318141E06C918F81988539
:10144000F9010995AF81B8858D919C91F801A08132
:10145000B181AA0DBB1DFC012281338140E06C915A
:101460008F819885F9010995D701C601052C04C023
:10147000880F991FAA1FBB1F0A94D2F79C011C0159
:1014800020943094412CD4018C91EF81F8854081D7
:101490005181481648F5642C712CEB81FC81A081A8
:1014A000B181A60DB71DFA01448155816C918F81E0
:1014B00098852D833E83FA010995660C771C2D8152
:1014C0003E81EF81F885E60DF71D892B29F4808593
:1014D0009185822B932B04C0808591858221932155
:1014E000918780874394CFCFF801A081B181AA0D65
:1014F000BB1DFA012281338141E06C918F81988577
:10150000F9010995AF81B8858D919C91F801A08171
:10151000B181AA0DBB1DFC012081318140E06C919D
:101520008F819885F9010995539472CF28960FB64B
:10153000F894DEBF0FBECDBFDF91CF911F910F9109
:10154000FF90EF90DF90CF90BF90AF909F908F90E3
:101550007F906F905F904F903F902F900895FC0187
:1015600080E090E0258D368D2617370739F00196FB
:1015700036968A309105B1F78FEF9FEF0895DC0121
:1015800026E0629FA00DB11D112490965C934E93AE
:101590005F9721E091962C939197FC01E459FF4FBE
:1015A000208131960190F081E02D222331F0309797
:1015B00049F0611107C0DC0102C0309719F05C9658
:1015C0008C9109940895CF92DF92FF920F931F930D
:1015D000CF93DF931F92CDB7DEB76C01F62EFC01DF
:1015E00086E0689FE00DF11D112411A2878D90A166
:1015F00081309105E1F01CF4892B51F042C082301A
:10160000910581F1039709F03CC040E050E02EC005
:101610004423B9F141E050E0C601B1DF1FD3F60128
:10162000E85AFF4F60837183828393832AC0498382
:1016300015D3F601E85AFF4F0081118122813381D1
:10164000601B710B820B930B72960081118120E05D
:1016500030E04981061717072807390718F442E0D8
:1016600050E004C041110DC043E050E06F2DC601B1
:101670000F90DF91CF911F910F91FF90DF90CF904E
:101680007ECF0F90DF91CF911F910F91FF90DF9050
:10169000CF9008952F923F924F925F926F927F92D8
:1016A0008F929F92AF92BF92CF92DF92EF92FF9272
:1016B0000F931F93CF93DF931F92CDB7DEB71C011B
:1016C000FC014AE08FEF9FEF278D30A1232B21F4FF
:1016D000148E968F858F11A2415036964111F4CF0A
:1016E000712C610126E6C20ED11C510187E6A80EBD
:1016F000B11C4101A0E68A0E911C46E0442ED601A1
:101700008C91781608F053C0612C8101070D111DD2
:10171000070D111D085F1F4FF501E0806E1408F0E2
:1017200044C0F80140815181062C02C0569547956E
:101730000A94E2F741707E9C70011124E60CF11CC2
:10174000D401ED91FC91EE0DFF1D5080B701C10158
:10175000498305DF498197FD02C0682F1BC00196B0
:1017600011F5442301F180E090E060E070E0F101C8
:10177000E80FF91F248D211110C0469EF001479EED
:10178000F00D1124E20DF31D548EF68EE58E10A29D
:10179000178E41E0C10117DF06C06F5F7F4F0696CD
:1017A0006A30710521F76394B7CF7394A8CF20E016
:1017B00030E080E0F101E20FF31F91A1911181E08F
:1017C0002A5F3F4F2C333105A9F70F90DF91CF915E
:1017D0001F910F91FF90EF90DF90CF90BF90AF904F
:1017E0009F908F907F906F905F904F903F902F9041
:1017F0000895CF92DF92EF92FF920F931F93CF93B2
:10180000DF938C012BD2E801C45ADF4FC880D98006
:10181000EA80FB806C197D098E099F09F801E8595F
:10182000FF4FC080D180E12CF12CC616D706E80608
:10183000F90658F4C8019ADDC8012CDF182F0ED222
:10184000688379838A839B8301C010E0812FDF91B5
:10185000CF911F910F91FF90EF90DF90CF9008955F
:101860000F931F93CF93DF93EC018C0104591F4F0B
:1018700081E0F8018083CE01BCDF882349F089A193
:10188000882331F08F8D98A1019711F48C8D03C0BE
:10189000F801108280E0DF91CF911F910F910895A0
:1018A000CF93DF93EC018CE791E0DADF8883DF915F
:1018B000CF910895EF920F9353E0E52E04E020E4DA
:1018C00031E043E451E067E471E08CE791E005DD4D
:1018D0000F91EF900895CF93DF93EC01862F6F83E4
:1018E0001E82B7D2892B11F083E08E83B7D1688333
:1018F00079838A839B83DF91CF910895FF920F9321
:101900001F93CF93DF93EC018F81A3D2FF24F39435
:10191000892B09F4F12C8E81982F977F9E838695D1
:101920008170F81649F09AD1688379838A839B8302
:101930008E8192E089271FC091D1088119812A8167
:101940003B81601B710B820B930B0C811D8120E08E
:1019500030E0601771078207930770F08E81817005
:101960008F1551F07BD1688379838A839B838E8125
:1019700091E0892788608E838E8183FB882780F998
:10198000DF91CF911F910F91FF900895EF92FF92F9
:101990000F931F93CF93DF938C01EB018091530141
:1019A0008823E9F062E08AE0E6D162E089E0E3D1F1
:1019B0006AE070E083EF91E08EDF85E0E82EF12CA5
:1019C000F092F801E092F70169E070E08BEE91E0AF
:1019D00082DFF092F001E092EF011092530183EF69
:1019E00091E08CDF8BEE91E089DF8091F1018170D5
:1019F0009091F90190FF04C091E0F801908302C03A
:101A0000F8011082882319F081E0888301C01882D0
:101A1000DF91CF911F910F91FF90EF900895109259
:101A2000F3011092F4011092F5011092F6018AE090
:101A300090E09093F8018093F7011092F9011092D1
:101A4000FA011092EB011092EC011092ED0110924C
:101A5000EE019093F0018093EF011092F10110924A
:101A6000F2010895CF93DF93EC0180915401882314
:101A700029F061E081E17FD11092540188818823AF
:101A800011F061E001C060E081E1DF91CF91ACC174
:101A9000CF93DF93EC0180915501882329F061E019
:101AA00082E169D1109255018881882311F061E0AB
:101AB00001C060E082E1DF91CF9196C1CF93DF93C7
:101AC000EC0180915601882329F061E083E153D134
:101AD000109256018881882311F061E001C060E016
:101AE00083E1DF91CF9180C1CF93DF93EC018091AF
:101AF0005701882329F061E080E13DD11092570120
:101B00008881882311F061E001C060E080E1DF910D
:101B1000CF916AC11F920F920FB60F9211242F938B
:101B20003F934F935F936F937F938F939F93AF9365
:101B3000BF93EF93FF938091FB019091FC01892B60
:101B400029F0E091FB01F091FC010995FF91EF91E3
:101B5000BF91AF919F918F917F916F915F914F91C5
:101B60003F912F910F900FBE0F901F9018951F92CD
:101B70000F920FB60F9211242F933F934F935F93C1
:101B80006F937F938F939F93AF93BF93EF93FF9345
:101B90008091FD019091FE01892B29F0E091FD01DA
:101BA000F091FE010995FF91EF91BF91AF919F9147
:101BB0008F917F916F915F914F913F912F910F90F6
:101BC0000FBE0F901F9018951F920F920FB60F9295
:101BD00011242F933F938F939F93AF93BF93809143
:101BE000000290910102A0910202B0910302309193
:101BF000FF0123E0230F2D3720F40196A11DB11D15
:101C000005C026E8230F0296A11DB11D2093FF01F8
:101C10008093000290930102A0930202B09303020A
:101C20008091040290910502A0910602B0910702F2
:101C30000196A11DB11D8093040290930502A0930B
:101C40000602B0930702BF91AF919F918F913F9190
:101C50002F910F900FBE0F901F9018952FB7F894EB
:101C60006091000270910102809102029091030242
:101C70002FBF0895789484B5826084BD84B5816057
:101C800084BD85B5826085BD85B5816085BDEEE684
:101C9000F0E0808181608083E1E8F0E01082808163
:101CA00082608083808181608083E0E8F0E08081D1
:101CB00081608083E1EBF0E0808184608083E0EBF1
:101CC000F0E0808181608083EAE7F0E080818460D9
:101CD0008083808182608083808181608083808135
:101CE000806880831092C10008958E3008F08E5075
:101CF00087702091580190E4299F90011124822B34
:101D000080937C0080917A00806480937A00809137
:101D10007A0086FDFCCF809178002091790090E0D8
:101D2000922B0895833081F028F4813099F082302D
:101D3000A1F008958730A9F08830B9F08430D1F44B
:101D4000809180008F7D03C0809180008F77809389
:101D50008000089584B58F7702C084B58F7D84BDDF
:101D600008958091B0008F7703C08091B0008F7D7F
:101D70008093B0000895CF93DF9390E0FC01E45886
:101D8000FF4F2491FC01E057FF4F8491882349F1D4
:101D900090E0880F991FFC01E854FF4FA591B49182
:101DA00082559F4FFC01C591D4919FB7611108C026
:101DB000F8948C91209582238C93888182230AC089
:101DC000623051F4F8948C91322F309583238C93A8
:101DD0008881822B888304C0F8948C91822B8C9309
:101DE0009FBFDF91CF9108950F931F93CF93DF9300
:101DF0001F92CDB7DEB7282F30E0F901E859FF4F29
:101E00008491F901E458FF4F1491F901E057FF4F15
:101E100004910023C1F0882319F0698383DF69816D
:101E2000E02FF0E0EE0FFF1FE255FF4FA591B491B8
:101E30009FB7F8948C91611103C01095812301C064
:101E4000812B8C939FBF0F90DF91CF911F910F91AA
:101E50000895CF93DF93282F30E0F901E859FF4F21
:101E60008491F901E458FF4FD491F901E057FF4FF5
:101E7000C491CC2389F0811155DFEC2FF0E0EE0FF7
:101E8000FF1FEC55FF4FA591B4912C912D2381E0BC
:101E900090E021F480E002C080E090E0DF91CF91FB
:101EA0000895FC01818D228D90E0805C9F4F821B04
:101EB00091098F7399270895FC01918D828D981750
:101EC00031F0828DE80FF11D858D90E008958FEF40
:101ED0009FEF0895FC01918D828D981761F0828D9E
:101EE000DF01A80FB11D5D968C91928D9F5F9F734E
:101EF000928F90E008958FEF9FEF0895FC01848DFD
:101F0000DF01A80FB11DA35ABF4F2C91848D90E023
:101F100001968F739927848FA689B7892C93A089FE
:101F2000B1898C9180648C93938D848D981306C0B5
:101F30000288F389E02D80818F7D80830895CF937F
:101F4000DF93EC01888D8823C1F0EA89FB898081C9
:101F500085FD05C0A889B9898C9186FD0EC00FB694
:101F600007FCF5CF808185FFF2CFA889B9898C91D4
:101F700085FFEDCFCE01C2DFE8CFDF91CF9108958D
:101F8000CF92DF92FF920F931F93CF93DF931F9215
:101F9000CDB7DEB76C01DC015B969C915B975C96DC
:101FA0008C915C97981307C05096ED91FC915197D6
:101FB000808185FD31C0F601038D10E00F5F1F4F5A
:101FC0000F731127F02EF601848DF81210C00FB692
:101FD00007FCF9CFD6015096ED91FC915197808185
:101FE00085FFF1CFC601698389DF6981ECCF838DDD
:101FF000E80FF11DE35AFF4F6083D6015B960C9307
:102000005B975296ED91FC9153978081806280831B
:1020100081E058968C930DC0D6015696ED91FC91B7
:10202000579760835096ED91FC9151978081806421
:10203000808381E090E00F90DF91CF911F910F910D
:10204000FF90DF90CF9008951F920F920FB60F92DE
:1020500011242F938F939F93EF93FF93E091180296
:10206000F09119028081E0911E02F0911F0282FD21
:1020700012C09081809121028F5F8F732091220284
:10208000821751F0E0912102F0E0E85FFD4F958F5B
:102090008093210201C08081FF91EF919F918F91E8
:1020A0002F910F900FBE0F901F9018951F920F92B7
:1020B0000FB60F9211242F933F934F935F936F931B
:1020C0007F938F939F93AF93BF93EF93FF9388E09A
:1020D00092E014DFFF91EF91BF91AF919F918F91AB
:1020E0007F916F915F914F913F912F910F900FBE14
:1020F0000F901F90189510920B0210920A0288EE12
:1021000093E0A0E0B0E080930C0290930D02A093C6
:102110000E02B0930F028AE691E090930902809339
:10212000080285EC90E0909315028093140284ECF1
:1021300090E0909317028093160280EC90E09093C9
:1021400019028093180281EC90E090931B02809317
:102150001A0282EC90E090931D0280931C0286ECA0
:1021600090E090931F0280931E0210922102109221
:10217000220210922302109224020895AF92BF927D
:10218000CF92DF92EF92FF920F931F93CF93DF9343
:102190006C017B01C0E0D0E000E010E0F601EC0F44
:1021A000FD1F4AE050E06281C701D6D05C016EE2BB
:1021B000C70168D08A0D9B1D080F191F2196C330D7
:1021C000D10561F74AE050E0F6016581C701C4D04E
:1021D000800F911FDF91CF911F910F91FF90EF9092
:1021E000DF90CF90BF90AF9008958AE791E09093F1
:1021F000A6028093A5021092A7021092A802109244
:10220000A9021092AA020895CF92DF92EF92FF9254
:102210000F931F93CF93DF936C017A01EB01E60ECE
:10222000F71E00E010E0CE15DF0561F06991D601E0
:10223000ED91FC910190F081E02DC6010995080F08
:10224000191FF1CFC801DF91CF911F910F91FF901E
:10225000EF90DF90CF9008956115710581F0DB015B
:102260000D900020E9F7AD0141505109461B570B75
:10227000DC01ED91FC910280F381E02D099480E076
:1022800090E00895DC01ED91FC910190F081E02D4A
:1022900009948F929F92AF92BF92CF92DF92EF926A
:1022A000FF920F931F93CF93DF93CDB7DEB7A19724
:1022B0000FB6F894DEBF0FBECDBF7C01C42EE52F54
:1022C000CB01D22E19A221E02D1510F02AE0D22E3A
:1022D0008E010F5D1F4F8D2C912CA12CB12C6C2DDC
:1022E0007E2FA5019401D7D18C2DD29E8019112467
:1022F000015011098A3014F4805D01C0895CF80135
:102300008083211531054105510521F0C22EE32FAF
:10231000CA01E5CFB801C7019FDFA1960FB6F894B7
:10232000DEBF0FBECDBFDF91CF911F910F91FF9008
:10233000EF90DF90CF90BF90AF909F908F900895D7
:102340002115310541F4DC01ED91FC910190F08102
:10235000E02D642F09949DCF9A01462F50E060E054
:1023600070E0EECF813039F018F0823051F00895EE
:1023700010926E00089580916F008D7F80936F00A2
:102380000895809170008D7F8093700081E080932C
:10239000B0008091B100887F84608093B10010927A
:1023A000B3000895CF93C82F809159018C1307C0B3
:1023B000E2ECF0E084919FEF9093590101C08FEF20
:1023C000D1DF60E08C2FCF910FCD1F920F920FB60F
:1023D0000F9211242F933F934F935F936F937F93AB
:1023E0008F939F93AF93BF93EF93FF938091AE0230
:1023F0009091AF02A091B002B091B102892B8A2BCB
:102400008B2B51F19091AB02E091AC02F091AD02B7
:102410008081892780838091AE029091AF02A09144
:10242000B002B091B102181619061A061B06BCF4C8
:102430008091AE029091AF02A091B002B091B10232
:102440000197A109B1098093AE029093AF02A093C6
:10245000B002B093B10203C080915901A3DFFF9194
:10246000EF91BF91AF919F918F917F916F915F910C
:102470004F913F912F910F900FBE0F901F90189585
:102480000895862F60E077CC1F920F920FB60F92BF
:1024900011242F933F934F935F936F937F938F9369
:1024A0009F93AF93BF93EF93FF9386E09FEF90933B
:1024B00085008093840032D0FF91EF91BF91AF915E
:1024C0009F918F917F916F915F914F913F912F914C
:1024D0000F900FBE0F901F90189586E09FEF90937E
:1024E000850080938400AFE6B0E08C918E7F8C9362
:1024F000E0E8F0E080818C7F8083E1E8F0E080819B
:10250000877E808380818360808380818B7F8083CE
:102510008C9181608C93089581E008952091B2029E
:1025200081E0820F8093B202222349F081E090E0A3
:102530009093B4028093B3022093B20208957894EA
:102540000E941801F8948091B20281508093B202E7
:1025500008950F931F93CF93DF931F92CDB7DEB7EC
:1025600081E0898387DB8CDF00915A0110915B0148
:10257000F801118210820E94C107AFDF21E0F8014B
:1025800080819181892B09F020E0298378947894C7
:102590008981882381F021E0F80180819181892B54
:1025A00009F020E029838981882311F0B5DF01C07B
:1025B00080E08983EDCF0E949608F89480E090E057
:1025C0000F90DF91CF911F910F91089540D008F4A3
:1025D00081E00895E89409C097FB3EF490958095BA
:1025E000709561957F4F8F4F9F4F9923A9F0F92FD9
:1025F00096E9BB279395F695879577956795B79557
:10260000F111F8CFFAF4BB0F11F460FF1BC06F5F3C
:102610007F4F8F4F9F4F16C0882311F096E911C04E
:10262000772321F09EE8872F762F05C0662371F06F
:1026300096E8862F70E060E02AF09A95660F771F83
:10264000881FDAF7880F9695879597F90895990F5F
:102650000008550FAA0BE0E8FEEF16161706E8076C
:10266000F907C0F012161306E407F50798F0621B8D
:10267000730B840B950B39F40A2661F0232B242B62
:10268000252B21F408950A2609F4A140A6958FEF81
:10269000811D811D0895A1E21A2EAA1BBB1BFD01FD
:1026A0000DC0AA1FBB1FEE1FFF1FA217B307E40731
:1026B000F50720F0A21BB30BE40BF50B661F771F89
:1026C000881F991F1A9469F7609570958095909569
:1026D0009B01AC01BD01CF010895EE0FFF1F0590D6
:1026E000F491E02D0994F999FECF92BD81BDF89A3D
:1026F000992780B50895262FF999FECF1FBA92BD6C
:1027000081BD20BD0FB6F894FA9AF99A0FBE0196D2
:062710000895F894FFCFCC
:1027160000000F0380000100000000603845B80B80
:1027260010270C2A0D060E0B012305070809020CBB
:102736000000000B0000000D00000006000000076E
:102746000000000000000000000000000000000083
:102756000807060504030231323334353637383973
:102766002A3023010101010101FFB502000000002A
:10277600650968096B0900000000C00F0411510FBC
:0C2786006A0F5C0F9F0F00000000BE10E7
:00000001FF
